{
  "transactions": [
    {
      "hash": "0xcf95c27b27da3ea299cd887b21caaf989c8d958687f84fefd5861a81b6e4aa13",
      "transactionType": "CALL",
      "contractName": "KronosSeedSale",
      "contractAddress": "0x8EEC38c46E8047A25E4E630186984EFe72c89223",
      "function": "addToWhitelist(address[],uint256)",
      "arguments": [
        "[0x744e054a911A89938B0f88043e14bE48A0f8BEc9, 0x42C7eF198f8aC9888E2B1b73e5B71f1D4535194A, 0x396B244C1E40F10E607c4CC7d9dd36992C8Ec681, 0x858a3D9ceC8502604bA4e90A4e530b097127BC2f, 0x100444c7D04A842D19bc3eE63cB7b96682FF3f43]",
        "2"
      ],
      "transaction": {
        "type": "0x02",
        "from": "0x744e054a911a89938b0f88043e14be48a0f8bec9",
        "to": "0x8eec38c46e8047a25e4e630186984efe72c89223",
        "gas": "0x33dc4",
        "value": "0x0",
        "data": "0xed740946000000000000000000000000000000000000000000000000000000000000004000000000000000000000000000000000000000000000000000000000000000020000000000000000000000000000000000000000000000000000000000000005000000000000000000000000744e054a911a89938b0f88043e14be48a0f8bec900000000000000000000000042c7ef198f8ac9888e2b1b73e5b71f1d4535194a000000000000000000000000396b244c1e40f10e607c4cc7d9dd36992c8ec681000000000000000000000000858a3d9cec8502604ba4e90a4e530b097127bc2f000000000000000000000000100444c7d04a842d19bc3ee63cb7b96682ff3f43",
        "nonce": "0x2ca",
        "accessList": []
      },
      "additionalContracts": [],
      "isFixedGasLimit": false
    }
  ],
  "receipts": [],
  "libraries": [],
  "pending": [
    "0xcf95c27b27da3ea299cd887b21caaf989c8d958687f84fefd5861a81b6e4aa13"
  ],
  "returns": {},
  "timestamp": 1698183450,
  "chain": 11155111,
  "multi": false,
  "commit": "7011b0d"
}