{
  "transactions": [
    {
      "hash": "0x456c3aaeaa854a355fc2c0fe9b4b99ae7787b87f24ac0b8cd6e2fba184acac5d",
      "transactionType": "CALL",
      "contractName": "KronosSeedSale",
      "contractAddress": "0x8EEC38c46E8047A25E4E630186984EFe72c89223",
      "function": "addAdmins(address[])",
      "arguments": [
        "[0x42C7eF198f8aC9888E2B1b73e5B71f1D4535194A, 0xe4572D69cDdf8D77a8935B5e1cc5880a750036Fe, 0xbAf53d5A52bE22497393Fb94Ee8B8fd5576217E4]"
      ],
      "transaction": {
        "type": "0x02",
        "from": "0x744e054a911a89938b0f88043e14be48a0f8bec9",
        "to": "0x8eec38c46e8047a25e4e630186984efe72c89223",
        "gas": "0x1f540",
        "value": "0x0",
        "data": "0x9c54df640000000000000000000000000000000000000000000000000000000000000020000000000000000000000000000000000000000000000000000000000000000300000000000000000000000042c7ef198f8ac9888e2b1b73e5b71f1d4535194a000000000000000000000000e4572d69cddf8d77a8935b5e1cc5880a750036fe000000000000000000000000baf53d5a52be22497393fb94ee8b8fd5576217e4",
        "nonce": "0x2c9",
        "accessList": []
      },
      "additionalContracts": [],
      "isFixedGasLimit": false
    }
  ],
  "receipts": [],
  "libraries": [],
  "pending": [
    "0x456c3aaeaa854a355fc2c0fe9b4b99ae7787b87f24ac0b8cd6e2fba184acac5d"
  ],
  "returns": {},
  "timestamp": 1698183326,
  "chain": 11155111,
  "multi": false,
  "commit": "7011b0d"
}