{
  "transactions": [
    {
      "hash": "0xb6dd0caf85829ad556f8fb90adc2d40faeaa92f303a238d073b716dabfafe893",
      "transactionType": "CALL",
      "contractName": "KronosMultiSig",
      "contractAddress": "0x2750Aa6E84d57Dd88e26F7f9fc49cA65f1bb1D00",
      "function": "setSeedSaleAddress(address)",
      "arguments": [
        "0x8EEC38c46E8047A25E4E630186984EFe72c89223"
      ],
      "transaction": {
        "type": "0x02",
        "from": "0x744e054a911a89938b0f88043e14be48a0f8bec9",
        "to": "0x2750aa6e84d57dd88e26f7f9fc49ca65f1bb1d00",
        "gas": "0xf902",
        "value": "0x0",
        "data": "0x260e764c0000000000000000000000008eec38c46e8047a25e4e630186984efe72c89223",
        "nonce": "0x2c8",
        "accessList": []
      },
      "additionalContracts": [],
      "isFixedGasLimit": false
    }
  ],
  "receipts": [
    {
      "transactionHash": "0xb6dd0caf85829ad556f8fb90adc2d40faeaa92f303a238d073b716dabfafe893",
      "transactionIndex": "0x1",
      "blockHash": "0xe01f69fcacce9cd807b37644a6dd5ddd599088e31e465bbe16460bff880f5d9c",
      "blockNumber": "0x45848d",
      "from": "0x744e054a911A89938B0f88043e14bE48A0f8BEc9",
      "to": "0x2750Aa6E84d57Dd88e26F7f9fc49cA65f1bb1D00",
      "cumulativeGasUsed": "0x40dbe",
      "gasUsed": "0xb448",
      "contractAddress": null,
      "logs": [],
      "status": "0x1",
      "logsBloom": "0x00000000000000000000000000000000000000000000000000000000000000000000000000000000000000000000000000000000000000000000000000000000000000000000000000000000000000000000000000000000000000000000000000000000000000000000000000000000000000000000000000000000000000000000000000000000000000000000000000000000000000000000000000000000000000000000000000000000000000000000000000000000000000000000000000000000000000000000000000000000000000000000000000000000000000000000000000000000000000000000000000000000000000000000000000000000",
      "type": "0x2",
      "effectiveGasPrice": "0xb2d05e0e"
    }
  ],
  "libraries": [],
  "pending": [],
  "returns": {},
  "timestamp": 1698183180,
  "chain": 11155111,
  "multi": false,
  "commit": "7011b0d"
}